{
  "_format": "hh-sol-artifact-1",
  "contractName": "Domains",
  "sourceName": "contracts/domains.sol",
  "abi": [
    {
      "inputs": [
        {
          "internalType": "string",
          "name": "_tld",
          "type": "string"
        }
      ],
      "stateMutability": "payable",
      "type": "constructor"
    },
    {
      "inputs": [],
      "name": "AlreadyRegistered",
      "type": "error"
    },
    {
      "inputs": [
        {
          "internalType": "string",
          "name": "name",
          "type": "string"
        }
      ],
      "name": "InvalidName",
      "type": "error"
    },
    {
      "inputs": [],
      "name": "Unauthorized",
      "type": "error"
    },
    {
      "anonymous": false,
      "inputs": [
        {
          "indexed": true,
          "internalType": "address",
          "name": "owner",
          "type": "address"
        },
        {
          "indexed": true,
          "internalType": "address",
          "name": "approved",
          "type": "address"
        },
        {
          "indexed": true,
          "internalType": "uint256",
          "name": "tokenId",
          "type": "uint256"
        }
      ],
      "name": "Approval",
      "type": "event"
    },
    {
      "anonymous": false,
      "inputs": [
        {
          "indexed": true,
          "internalType": "address",
          "name": "owner",
          "type": "address"
        },
        {
          "indexed": true,
          "internalType": "address",
          "name": "operator",
          "type": "address"
        },
        {
          "indexed": false,
          "internalType": "bool",
          "name": "approved",
          "type": "bool"
        }
      ],
      "name": "ApprovalForAll",
      "type": "event"
    },
    {
      "anonymous": false,
      "inputs": [
        {
          "indexed": true,
          "internalType": "address",
          "name": "previousOwner",
          "type": "address"
        },
        {
          "indexed": true,
          "internalType": "address",
          "name": "newOwner",
          "type": "address"
        }
      ],
      "name": "OwnershipTransferred",
      "type": "event"
    },
    {
      "anonymous": false,
      "inputs": [
        {
          "indexed": true,
          "internalType": "address",
          "name": "from",
          "type": "address"
        },
        {
          "indexed": true,
          "internalType": "address",
          "name": "to",
          "type": "address"
        },
        {
          "indexed": true,
          "internalType": "uint256",
          "name": "tokenId",
          "type": "uint256"
        }
      ],
      "name": "Transfer",
      "type": "event"
    },
    {
      "inputs": [
        {
          "internalType": "address",
          "name": "to",
          "type": "address"
        },
        {
          "internalType": "uint256",
          "name": "tokenId",
          "type": "uint256"
        }
      ],
      "name": "approve",
      "outputs": [],
      "stateMutability": "nonpayable",
      "type": "function"
    },
    {
      "inputs": [
        {
          "internalType": "address",
          "name": "owner",
          "type": "address"
        }
      ],
      "name": "balanceOf",
      "outputs": [
        {
          "internalType": "uint256",
          "name": "",
          "type": "uint256"
        }
      ],
      "stateMutability": "view",
      "type": "function"
    },
    {
      "inputs": [
        {
          "internalType": "string",
          "name": "name",
          "type": "string"
        }
      ],
      "name": "getAddress",
      "outputs": [
        {
          "internalType": "address",
          "name": "",
          "type": "address"
        }
      ],
      "stateMutability": "view",
      "type": "function"
    },
    {
      "inputs": [],
      "name": "getAllNames",
      "outputs": [
        {
          "internalType": "string[]",
          "name": "",
          "type": "string[]"
        }
      ],
      "stateMutability": "view",
      "type": "function"
    },
    {
      "inputs": [
        {
          "internalType": "uint256",
          "name": "tokenId",
          "type": "uint256"
        }
      ],
      "name": "getApproved",
      "outputs": [
        {
          "internalType": "address",
          "name": "",
          "type": "address"
        }
      ],
      "stateMutability": "view",
      "type": "function"
    },
    {
      "inputs": [
        {
          "internalType": "string",
          "name": "name",
          "type": "string"
        }
      ],
      "name": "getRecord",
      "outputs": [
        {
          "internalType": "string",
          "name": "",
          "type": "string"
        }
      ],
      "stateMutability": "view",
      "type": "function"
    },
    {
      "inputs": [
        {
          "internalType": "address",
          "name": "owner",
          "type": "address"
        },
        {
          "internalType": "address",
          "name": "operator",
          "type": "address"
        }
      ],
      "name": "isApprovedForAll",
      "outputs": [
        {
          "internalType": "bool",
          "name": "",
          "type": "bool"
        }
      ],
      "stateMutability": "view",
      "type": "function"
    },
    {
      "inputs": [],
      "name": "name",
      "outputs": [
        {
          "internalType": "string",
          "name": "",
          "type": "string"
        }
      ],
      "stateMutability": "view",
      "type": "function"
    },
    {
      "inputs": [],
      "name": "owner",
      "outputs": [
        {
          "internalType": "address",
          "name": "",
          "type": "address"
        }
      ],
      "stateMutability": "view",
      "type": "function"
    },
    {
      "inputs": [
        {
          "internalType": "uint256",
          "name": "tokenId",
          "type": "uint256"
        }
      ],
      "name": "ownerOf",
      "outputs": [
        {
          "internalType": "address",
          "name": "",
          "type": "address"
        }
      ],
      "stateMutability": "view",
      "type": "function"
    },
    {
      "inputs": [
        {
          "internalType": "string",
          "name": "name",
          "type": "string"
        }
      ],
      "name": "price",
      "outputs": [
        {
          "internalType": "uint256",
          "name": "",
          "type": "uint256"
        }
      ],
      "stateMutability": "pure",
      "type": "function"
    },
    {
      "inputs": [
        {
          "internalType": "string",
          "name": "name",
          "type": "string"
        }
      ],
      "name": "register",
      "outputs": [],
      "stateMutability": "payable",
      "type": "function"
    },
    {
      "inputs": [],
      "name": "renounceOwnership",
      "outputs": [],
      "stateMutability": "nonpayable",
      "type": "function"
    },
    {
      "inputs": [
        {
          "internalType": "address",
          "name": "from",
          "type": "address"
        },
        {
          "internalType": "address",
          "name": "to",
          "type": "address"
        },
        {
          "internalType": "uint256",
          "name": "tokenId",
          "type": "uint256"
        }
      ],
      "name": "safeTransferFrom",
      "outputs": [],
      "stateMutability": "nonpayable",
      "type": "function"
    },
    {
      "inputs": [
        {
          "internalType": "address",
          "name": "from",
          "type": "address"
        },
        {
          "internalType": "address",
          "name": "to",
          "type": "address"
        },
        {
          "internalType": "uint256",
          "name": "tokenId",
          "type": "uint256"
        },
        {
          "internalType": "bytes",
          "name": "_data",
          "type": "bytes"
        }
      ],
      "name": "safeTransferFrom",
      "outputs": [],
      "stateMutability": "nonpayable",
      "type": "function"
    },
    {
      "inputs": [
        {
          "internalType": "address",
          "name": "operator",
          "type": "address"
        },
        {
          "internalType": "bool",
          "name": "approved",
          "type": "bool"
        }
      ],
      "name": "setApprovalForAll",
      "outputs": [],
      "stateMutability": "nonpayable",
      "type": "function"
    },
    {
      "inputs": [
        {
          "internalType": "string",
          "name": "name",
          "type": "string"
        },
        {
          "internalType": "string",
          "name": "record",
          "type": "string"
        }
      ],
      "name": "setRecord",
      "outputs": [],
      "stateMutability": "nonpayable",
      "type": "function"
    },
    {
      "inputs": [
        {
          "internalType": "bytes4",
          "name": "interfaceId",
          "type": "bytes4"
        }
      ],
      "name": "supportsInterface",
      "outputs": [
        {
          "internalType": "bool",
          "name": "",
          "type": "bool"
        }
      ],
      "stateMutability": "view",
      "type": "function"
    },
    {
      "inputs": [],
      "name": "symbol",
      "outputs": [
        {
          "internalType": "string",
          "name": "",
          "type": "string"
        }
      ],
      "stateMutability": "view",
      "type": "function"
    },
    {
      "inputs": [],
      "name": "tld",
      "outputs": [
        {
          "internalType": "string",
          "name": "",
          "type": "string"
        }
      ],
      "stateMutability": "view",
      "type": "function"
    },
    {
      "inputs": [
        {
          "internalType": "uint256",
          "name": "tokenId",
          "type": "uint256"
        }
      ],
      "name": "tokenURI",
      "outputs": [
        {
          "internalType": "string",
          "name": "",
          "type": "string"
        }
      ],
      "stateMutability": "view",
      "type": "function"
    },
    {
      "inputs": [
        {
          "internalType": "address",
          "name": "from",
          "type": "address"
        },
        {
          "internalType": "address",
          "name": "to",
          "type": "address"
        },
        {
          "internalType": "uint256",
          "name": "tokenId",
          "type": "uint256"
        }
      ],
      "name": "transferFrom",
      "outputs": [],
      "stateMutability": "nonpayable",
      "type": "function"
    },
    {
      "inputs": [
        {
          "internalType": "address",
          "name": "newOwner",
          "type": "address"
        }
      ],
      "name": "transferOwnership",
      "outputs": [],
      "stateMutability": "nonpayable",
      "type": "function"
    },
    {
      "inputs": [
        {
          "internalType": "string",
          "name": "_name",
          "type": "string"
        }
      ],
      "name": "valid",
      "outputs": [
        {
          "internalType": "bool",
          "name": "",
          "type": "bool"
        }
      ],
      "stateMutability": "pure",
      "type": "function"
    },
    {
      "inputs": [],
      "name": "withdraw",
      "outputs": [],
      "stateMutability": "nonpayable",
      "type": "function"
    }
  ],
  "bytecode": "0x6080604052604051806108a0016040528061086b8152602001620052e161086b9139600a90805190602001906200003892919062000371565b506040518060400160405280600d81526020017f3c2f746578743e3c2f7376673e00000000000000000000000000000000000000815250600b90805190602001906200008692919062000371565b5060405162005b4c38038062005b4c8339818101604052810190620000ac919062000493565b6040518060400160405280601081526020017f506f6d204e616d652053657276696365000000000000000000000000000000008152506040518060400160405280600381526020017f504e53000000000000000000000000000000000000000000000000000000000081525081600090805190602001906200013092919062000371565b5080600190805190602001906200014992919062000371565b5050506200016c62000160620001d760201b60201c565b620001df60201b60201c565b80600990805190602001906200018492919062000371565b50620001d06040518060400160405280601d81526020017f68657265206d7920646f6d61696e20736d61727420636f6e7472616374000000815250620002a560201b62001aad1760201c565b50620006c9565b600033905090565b6000600760009054906101000a900473ffffffffffffffffffffffffffffffffffffffff16905081600760006101000a81548173ffffffffffffffffffffffffffffffffffffffff021916908373ffffffffffffffffffffffffffffffffffffffff1602179055508173ffffffffffffffffffffffffffffffffffffffff168173ffffffffffffffffffffffffffffffffffffffff167f8be0079c531659141344cd1fd0a4f28419497f9722a3daafe3b4186f6b6457e060405160405180910390a35050565b6200034581604051602401620002bc919062000519565b6040516020818303038152906040527f41304fac000000000000000000000000000000000000000000000000000000007bffffffffffffffffffffffffffffffffffffffffffffffffffffffff19166020820180517bffffffffffffffffffffffffffffffffffffffffffffffffffffffff83818316178352505050506200034860201b60201c565b50565b60008151905060006a636f6e736f6c652e6c6f679050602083016000808483855afa5050505050565b8280546200037f90620005ee565b90600052602060002090601f016020900481019282620003a35760008555620003ef565b82601f10620003be57805160ff1916838001178555620003ef565b82800160010185558215620003ef579182015b82811115620003ee578251825591602001919060010190620003d1565b5b509050620003fe919062000402565b5090565b5b808211156200041d57600081600090555060010162000403565b5090565b600062000438620004328462000566565b6200053d565b9050828152602081018484840111156200045157600080fd5b6200045e848285620005b8565b509392505050565b600082601f8301126200047857600080fd5b81516200048a84826020860162000421565b91505092915050565b600060208284031215620004a657600080fd5b600082015167ffffffffffffffff811115620004c157600080fd5b620004cf8482850162000466565b91505092915050565b6000620004e5826200059c565b620004f18185620005a7565b935062000503818560208601620005b8565b6200050e81620006b8565b840191505092915050565b60006020820190508181036000830152620005358184620004d8565b905092915050565b6000620005496200055c565b905062000557828262000624565b919050565b6000604051905090565b600067ffffffffffffffff82111562000584576200058362000689565b5b6200058f82620006b8565b9050602081019050919050565b600081519050919050565b600082825260208201905092915050565b60005b83811015620005d8578082015181840152602081019050620005bb565b83811115620005e8576000848401525b50505050565b600060028204905060018216806200060757607f821691505b602082108114156200061e576200061d6200065a565b5b50919050565b6200062f82620006b8565b810181811067ffffffffffffffff8211171562000651576200065062000689565b5b80604052505050565b7f4e487b7100000000000000000000000000000000000000000000000000000000600052602260045260246000fd5b7f4e487b7100000000000000000000000000000000000000000000000000000000600052604160045260246000fd5b6000601f19601f8301169050919050565b614c0880620006d96000396000f3fe6080604052600436106101665760003560e01c80638da5cb5b116100d1578063c1880a981161008a578063f2c298be11610064578063f2c298be14610560578063f2fde38b1461057c578063fb825e5f146105a5578063fe2c6198146105d057610166565b8063c1880a98146104bd578063c87b56dd146104e6578063e985e9c51461052357610166565b80638da5cb5b1461039b57806395d89b41146103c65780639791c097146103f1578063a22cb4651461042e578063b88d4fde14610457578063bf40fac11461048057610166565b80632d551432116101235780632d5514321461029f5780633ccfd60b146102ca57806342842e0e146102e15780636352211e1461030a57806370a0823114610347578063715018a61461038457610166565b806301ffc9a71461016b57806306fdde03146101a8578063081812fc146101d3578063095ea7b31461021057806311dd88451461023957806323b872dd14610276575b600080fd5b34801561017757600080fd5b50610192600480360381019061018d919061331e565b61060d565b60405161019f9190613c51565b60405180910390f35b3480156101b457600080fd5b506101bd6106ef565b6040516101ca9190613c90565b60405180910390f35b3480156101df57600080fd5b506101fa60048036038101906101f5919061342a565b610781565b6040516102079190613bc8565b60405180910390f35b34801561021c57600080fd5b50610237600480360381019061023291906132e2565b610806565b005b34801561024557600080fd5b50610260600480360381019061025b9190613370565b61091e565b60405161026d9190613c90565b60405180910390f35b34801561028257600080fd5b5061029d600480360381019061029891906131dc565b6109d1565b005b3480156102ab57600080fd5b506102b4610a31565b6040516102c19190613c90565b60405180910390f35b3480156102d657600080fd5b506102df610abf565b005b3480156102ed57600080fd5b50610308600480360381019061030391906131dc565b610bf1565b005b34801561031657600080fd5b50610331600480360381019061032c919061342a565b610c11565b60405161033e9190613bc8565b60405180910390f35b34801561035357600080fd5b5061036e60048036038101906103699190613177565b610cc3565b60405161037b9190613fec565b60405180910390f35b34801561039057600080fd5b50610399610d7b565b005b3480156103a757600080fd5b506103b0610e03565b6040516103bd9190613bc8565b60405180910390f35b3480156103d257600080fd5b506103db610e2d565b6040516103e89190613c90565b60405180910390f35b3480156103fd57600080fd5b5061041860048036038101906104139190613370565b610ebf565b6040516104259190613c51565b60405180910390f35b34801561043a57600080fd5b50610455600480360381019061045091906132a6565b610f73565b005b34801561046357600080fd5b5061047e6004803603810190610479919061322b565b610f89565b005b34801561048c57600080fd5b506104a760048036038101906104a29190613370565b610feb565b6040516104b49190613bc8565b60405180910390f35b3480156104c957600080fd5b506104e460048036038101906104df91906133b5565b611036565b005b3480156104f257600080fd5b5061050d6004803603810190610508919061342a565b611111565b60405161051a9190613c90565b60405180910390f35b34801561052f57600080fd5b5061054a600480360381019061054591906131a0565b611263565b6040516105579190613c51565b60405180910390f35b61057a60048036038101906105759190613370565b6112f7565b005b34801561058857600080fd5b506105a3600480360381019061059e9190613177565b611664565b005b3480156105b157600080fd5b506105ba61175c565b6040516105c79190613c2f565b60405180910390f35b3480156105dc57600080fd5b506105f760048036038101906105f29190613370565b611a07565b6040516106049190613fec565b60405180910390f35b60007f80ac58cd000000000000000000000000000000000000000000000000000000007bffffffffffffffffffffffffffffffffffffffffffffffffffffffff1916827bffffffffffffffffffffffffffffffffffffffffffffffffffffffff191614806106d857507f5b5e139f000000000000000000000000000000000000000000000000000000007bffffffffffffffffffffffffffffffffffffffffffffffffffffffff1916827bffffffffffffffffffffffffffffffffffffffffffffffffffffffff1916145b806106e857506106e782611b46565b5b9050919050565b6060600080546106fe906142d5565b80601f016020809104026020016040519081016040528092919081815260200182805461072a906142d5565b80156107775780601f1061074c57610100808354040283529160200191610777565b820191906000526020600020905b81548152906001019060200180831161075a57829003601f168201915b5050505050905090565b600061078c82611bb0565b6107cb576040517f08c379a00000000000000000000000000000000000000000000000000000000081526004016107c290613f2c565b60405180910390fd5b6004600083815260200190815260200160002060009054906101000a900473ffffffffffffffffffffffffffffffffffffffff169050919050565b600061081182610c11565b90508073ffffffffffffffffffffffffffffffffffffffff168373ffffffffffffffffffffffffffffffffffffffff161415610882576040517f08c379a000000000000000000000000000000000000000000000000000000000815260040161087990613fac565b60405180910390fd5b8073ffffffffffffffffffffffffffffffffffffffff166108a1611c1c565b73ffffffffffffffffffffffffffffffffffffffff1614806108d057506108cf816108ca611c1c565b611263565b5b61090f576040517f08c379a000000000000000000000000000000000000000000000000000000000815260040161090690613e6c565b60405180910390fd5b6109198383611c24565b505050565b6060600e8383604051610932929190613a8a565b9081526020016040518091039020805461094b906142d5565b80601f0160208091040260200160405190810160405280929190818152602001828054610977906142d5565b80156109c45780601f10610999576101008083540402835291602001916109c4565b820191906000526020600020905b8154815290600101906020018083116109a757829003601f168201915b5050505050905092915050565b6109e26109dc611c1c565b82611cdd565b610a21576040517f08c379a0000000000000000000000000000000000000000000000000000000008152600401610a1890613fcc565b60405180910390fd5b610a2c838383611dbb565b505050565b60098054610a3e906142d5565b80601f0160208091040260200160405190810160405280929190818152602001828054610a6a906142d5565b8015610ab75780601f10610a8c57610100808354040283529160200191610ab7565b820191906000526020600020905b815481529060010190602001808311610a9a57829003601f168201915b505050505081565b610ac7611c1c565b73ffffffffffffffffffffffffffffffffffffffff16610ae5610e03565b73ffffffffffffffffffffffffffffffffffffffff1614610b3b576040517f08c379a0000000000000000000000000000000000000000000000000000000008152600401610b3290613f4c565b60405180910390fd5b6000610b45610e03565b73ffffffffffffffffffffffffffffffffffffffff1647604051610b6890613bb3565b60006040518083038185875af1925050503d8060008114610ba5576040519150601f19603f3d011682016040523d82523d6000602084013e610baa565b606091505b5050905080610bee576040517f08c379a0000000000000000000000000000000000000000000000000000000008152600401610be590613d6c565b60405180910390fd5b50565b610c0c83838360405180602001604052806000815250610f89565b505050565b6000806002600084815260200190815260200160002060009054906101000a900473ffffffffffffffffffffffffffffffffffffffff169050600073ffffffffffffffffffffffffffffffffffffffff168173ffffffffffffffffffffffffffffffffffffffff161415610cba576040517f08c379a0000000000000000000000000000000000000000000000000000000008152600401610cb190613eac565b60405180910390fd5b80915050919050565b60008073ffffffffffffffffffffffffffffffffffffffff168273ffffffffffffffffffffffffffffffffffffffff161415610d34576040517f08c379a0000000000000000000000000000000000000000000000000000000008152600401610d2b90613e8c565b60405180910390fd5b600360008373ffffffffffffffffffffffffffffffffffffffff1673ffffffffffffffffffffffffffffffffffffffff168152602001908152602001600020549050919050565b610d83611c1c565b73ffffffffffffffffffffffffffffffffffffffff16610da1610e03565b73ffffffffffffffffffffffffffffffffffffffff1614610df7576040517f08c379a0000000000000000000000000000000000000000000000000000000008152600401610dee90613f4c565b60405180910390fd5b610e016000612022565b565b6000600760009054906101000a900473ffffffffffffffffffffffffffffffffffffffff16905090565b606060018054610e3c906142d5565b80601f0160208091040260200160405190810160405280929190818152602001828054610e68906142d5565b8015610eb55780601f10610e8a57610100808354040283529160200191610eb5565b820191906000526020600020905b815481529060010190602001808311610e9857829003601f168201915b5050505050905090565b60006003610f1084848080601f016020809104026020016040519081016040528093929190818152602001838380828437600081840152601f19601f820116905080830192505050505050506120e8565b10158015610f6b5750600a610f6884848080601f016020809104026020016040519081016040528093929190818152602001838380828437600081840152601f19601f820116905080830192505050505050506120e8565b11155b905092915050565b610f85610f7e611c1c565b83836122c3565b5050565b610f9a610f94611c1c565b83611cdd565b610fd9576040517f08c379a0000000000000000000000000000000000000000000000000000000008152600401610fd090613fcc565b60405180910390fd5b610fe584848484612430565b50505050565b6000600d8383604051610fff929190613a8a565b908152602001604051809103902060009054906101000a900473ffffffffffffffffffffffffffffffffffffffff16905092915050565b3373ffffffffffffffffffffffffffffffffffffffff16600d858560405161105f929190613a8a565b908152602001604051809103902060009054906101000a900473ffffffffffffffffffffffffffffffffffffffff1673ffffffffffffffffffffffffffffffffffffffff16146110db576040517f82b4290000000000000000000000000000000000000000000000000000000000815260040160405180910390fd5b8181600e86866040516110ef929190613a8a565b9081526020016040518091039020919061110a929190612f33565b5050505050565b606061111c82611bb0565b61115b576040517f08c379a000000000000000000000000000000000000000000000000000000000815260040161115290613f0c565b60405180910390fd5b600060066000848152602001908152602001600020805461117b906142d5565b80601f01602080910402602001604051908101604052809291908181526020018280546111a7906142d5565b80156111f45780601f106111c9576101008083540402835291602001916111f4565b820191906000526020600020905b8154815290600101906020018083116111d757829003601f168201915b50505050509050600061120561248c565b905060008151141561121b57819250505061125e565b600082511115611250578082604051602001611238929190613ad4565b6040516020818303038152906040529250505061125e565b611259846124a3565b925050505b919050565b6000600560008473ffffffffffffffffffffffffffffffffffffffff1673ffffffffffffffffffffffffffffffffffffffff16815260200190815260200160002060008373ffffffffffffffffffffffffffffffffffffffff1673ffffffffffffffffffffffffffffffffffffffff16815260200190815260200160002060009054906101000a900460ff16905092915050565b600073ffffffffffffffffffffffffffffffffffffffff16600d8383604051611321929190613a8a565b908152602001604051809103902060009054906101000a900473ffffffffffffffffffffffffffffffffffffffff1673ffffffffffffffffffffffffffffffffffffffff161461139d576040517f3a81d6fc00000000000000000000000000000000000000000000000000000000815260040160405180910390fd5b6113a78282610ebf565b6113ea5781816040517f7f19f48d0000000000000000000000000000000000000000000000000000000081526004016113e1929190613c6c565b60405180910390fd5b60006113f68383611a07565b90508034101561143b576040517f08c379a000000000000000000000000000000000000000000000000000000000815260040161143290613f8c565b60405180910390fd5b60008383600960405160200161145393929190613aa3565b60405160208183030381529060405290506000600a82600b60405160200161147d93929190613af8565b6040516020818303038152906040529050600061149a600861254a565b905060006114eb87878080601f016020809104026020016040519081016040528093929190818152602001838380828437600081840152601f19601f820116905080830192505050505050506120e8565b905060006114f882612558565b905061151d604051806060016040528060278152602001614b6c602791398685612705565b60006115538661152c876127a4565b8460405160200161153f93929190613b29565b6040516020818303038152906040526127a4565b90506000816040516020016115689190613b91565b6040516020818303038152906040529050611583338661292e565b61158d858261294c565b33600d8b8b6040516115a0929190613a8a565b908152602001604051809103902060006101000a81548173ffffffffffffffffffffffffffffffffffffffff021916908373ffffffffffffffffffffffffffffffffffffffff1602179055508989600c6000888152602001908152602001600020919061160e929190612f33565b5061164e6040518060400160405280601b81526020017f2573206861732072656769737465726564206120646f6d61696e210000000000815250336129c0565b6116586008612a5c565b50505050505050505050565b61166c611c1c565b73ffffffffffffffffffffffffffffffffffffffff1661168a610e03565b73ffffffffffffffffffffffffffffffffffffffff16146116e0576040517f08c379a00000000000000000000000000000000000000000000000000000000081526004016116d790613f4c565b60405180910390fd5b600073ffffffffffffffffffffffffffffffffffffffff168173ffffffffffffffffffffffffffffffffffffffff161415611750576040517f08c379a000000000000000000000000000000000000000000000000000000000815260040161174790613dac565b60405180910390fd5b61175981612022565b50565b606061179c6040518060400160405280601f81526020017f47657474696e6720616c6c206e616d65732066726f6d20636f6e747261637400815250611aad565b60006117a8600861254a565b67ffffffffffffffff8111156117e7577f4e487b7100000000000000000000000000000000000000000000000000000000600052604160045260246000fd5b60405190808252806020026020018201604052801561181a57816020015b60608152602001906001900390816118055790505b50905060005b61182a600861254a565b8110156119ff57600c6000828152602001908152602001600020805461184f906142d5565b80601f016020809104026020016040519081016040528092919081815260200182805461187b906142d5565b80156118c85780601f1061189d576101008083540402835291602001916118c8565b820191906000526020600020905b8154815290600101906020018083116118ab57829003601f168201915b5050505050828281518110611906577f4e487b7100000000000000000000000000000000000000000000000000000000600052603260045260246000fd5b60200260200101819052506119ec6040518060400160405280601781526020017f4e616d6573206f6620746f6b656e20256420697320257300000000000000000081525082600c60008581526020019081526020016000208054611969906142d5565b80601f0160208091040260200160405190810160405280929190818152602001828054611995906142d5565b80156119e25780601f106119b7576101008083540402835291602001916119e2565b820191906000526020600020905b8154815290600101906020018083116119c557829003601f168201915b5050505050612a72565b80806119f790614338565b915050611820565b508091505090565b600080611a5784848080601f016020809104026020016040519081016040528093929190818152602001838380828437600081840152601f19601f820116905080830192505050505050506120e8565b905060008111611a6657600080fd5b6003811415611a80576706f05b59d3b20000915050611aa7565b6004811415611a9a57670429d069189e0000915050611aa7565b67016345785d8a00009150505b92915050565b611b4381604051602401611ac19190613c90565b6040516020818303038152906040527f41304fac000000000000000000000000000000000000000000000000000000007bffffffffffffffffffffffffffffffffffffffffffffffffffffffff19166020820180517bffffffffffffffffffffffffffffffffffffffffffffffffffffffff8381831617835250505050612b11565b50565b60007f01ffc9a7000000000000000000000000000000000000000000000000000000007bffffffffffffffffffffffffffffffffffffffffffffffffffffffff1916827bffffffffffffffffffffffffffffffffffffffffffffffffffffffff1916149050919050565b60008073ffffffffffffffffffffffffffffffffffffffff166002600084815260200190815260200160002060009054906101000a900473ffffffffffffffffffffffffffffffffffffffff1673ffffffffffffffffffffffffffffffffffffffff1614159050919050565b600033905090565b816004600083815260200190815260200160002060006101000a81548173ffffffffffffffffffffffffffffffffffffffff021916908373ffffffffffffffffffffffffffffffffffffffff160217905550808273ffffffffffffffffffffffffffffffffffffffff16611c9783610c11565b73ffffffffffffffffffffffffffffffffffffffff167f8c5be1e5ebec7d5bd14f71427d1e84f3dd0314c0f7b2291e5b200ac8c7c3b92560405160405180910390a45050565b6000611ce882611bb0565b611d27576040517f08c379a0000000000000000000000000000000000000000000000000000000008152600401611d1e90613e4c565b60405180910390fd5b6000611d3283610c11565b90508073ffffffffffffffffffffffffffffffffffffffff168473ffffffffffffffffffffffffffffffffffffffff161480611da157508373ffffffffffffffffffffffffffffffffffffffff16611d8984610781565b73ffffffffffffffffffffffffffffffffffffffff16145b80611db25750611db18185611263565b5b91505092915050565b8273ffffffffffffffffffffffffffffffffffffffff16611ddb82610c11565b73ffffffffffffffffffffffffffffffffffffffff1614611e31576040517f08c379a0000000000000000000000000000000000000000000000000000000008152600401611e2890613dcc565b60405180910390fd5b600073ffffffffffffffffffffffffffffffffffffffff168273ffffffffffffffffffffffffffffffffffffffff161415611ea1576040517f08c379a0000000000000000000000000000000000000000000000000000000008152600401611e9890613e0c565b60405180910390fd5b611eac838383612b3a565b611eb7600082611c24565b6001600360008573ffffffffffffffffffffffffffffffffffffffff1673ffffffffffffffffffffffffffffffffffffffff1681526020019081526020016000206000828254611f0791906141eb565b925050819055506001600360008473ffffffffffffffffffffffffffffffffffffffff1673ffffffffffffffffffffffffffffffffffffffff1681526020019081526020016000206000828254611f5e919061410a565b92505081905550816002600083815260200190815260200160002060006101000a81548173ffffffffffffffffffffffffffffffffffffffff021916908373ffffffffffffffffffffffffffffffffffffffff160217905550808273ffffffffffffffffffffffffffffffffffffffff168473ffffffffffffffffffffffffffffffffffffffff167fddf252ad1be2c89b69c2b068fc378daa952ba7f163c4a11628f55a4df523b3ef60405160405180910390a461201d838383612b3f565b505050565b6000600760009054906101000a900473ffffffffffffffffffffffffffffffffffffffff16905081600760006101000a81548173ffffffffffffffffffffffffffffffffffffffff021916908373ffffffffffffffffffffffffffffffffffffffff1602179055508173ffffffffffffffffffffffffffffffffffffffff168173ffffffffffffffffffffffffffffffffffffffff167f8be0079c531659141344cd1fd0a4f28419497f9722a3daafe3b4186f6b6457e060405160405180910390a35050565b60008060008084519050600092505b808210156122b857600085838151811061213a577f4e487b7100000000000000000000000000000000000000000000000000000000600052603260045260246000fd5b602001015160f81c60f81b9050608060f81b817effffffffffffffffffffffffffffffffffffffffffffffffffffffffffffff1916101561218957600183612182919061410a565b92506122a4565b60e060f81b817effffffffffffffffffffffffffffffffffffffffffffffffffffffffffffff191610156121cb576002836121c4919061410a565b92506122a3565b60f060f81b817effffffffffffffffffffffffffffffffffffffffffffffffffffffffffffff1916101561220d57600383612206919061410a565b92506122a2565b60f8801b817effffffffffffffffffffffffffffffffffffffffffffffffffffffffffffff1916101561224e57600483612247919061410a565b92506122a1565b60fc60f81b817effffffffffffffffffffffffffffffffffffffffffffffffffffffffffffff1916101561229057600583612289919061410a565b92506122a0565b60068361229d919061410a565b92505b5b5b5b5b5082806122b090614338565b9350506120f7565b829350505050919050565b8173ffffffffffffffffffffffffffffffffffffffff168373ffffffffffffffffffffffffffffffffffffffff161415612332576040517f08c379a000000000000000000000000000000000000000000000000000000000815260040161232990613e2c565b60405180910390fd5b80600560008573ffffffffffffffffffffffffffffffffffffffff1673ffffffffffffffffffffffffffffffffffffffff16815260200190815260200160002060008473ffffffffffffffffffffffffffffffffffffffff1673ffffffffffffffffffffffffffffffffffffffff16815260200190815260200160002060006101000a81548160ff0219169083151502179055508173ffffffffffffffffffffffffffffffffffffffff168373ffffffffffffffffffffffffffffffffffffffff167f17307eab39ab6107e8899845ad3d59bd9653f200f220920489ca2b5937696c31836040516124239190613c51565b60405180910390a3505050565b61243b848484611dbb565b61244784848484612b44565b612486576040517f08c379a000000000000000000000000000000000000000000000000000000000815260040161247d90613d8c565b60405180910390fd5b50505050565b606060405180602001604052806000815250905090565b60606124ae82611bb0565b6124ed576040517f08c379a00000000000000000000000000000000000000000000000000000000081526004016124e490613f6c565b60405180910390fd5b60006124f761248c565b905060008151116125175760405180602001604052806000815250612542565b8061252184612558565b604051602001612532929190613ad4565b6040516020818303038152906040525b915050919050565b600081600001549050919050565b606060008214156125a0576040518060400160405280600181526020017f30000000000000000000000000000000000000000000000000000000000000008152509050612700565b600082905060005b600082146125d25780806125bb90614338565b915050600a826125cb9190614160565b91506125a8565b60008167ffffffffffffffff811115612614577f4e487b7100000000000000000000000000000000000000000000000000000000600052604160045260246000fd5b6040519080825280601f01601f1916602001820160405280156126465781602001600182028036833780820191505090505b5090505b600085146126f95760018261265f91906141eb565b9150600a8561266e9190614381565b603061267a919061410a565b60f81b8183815181106126b6577f4e487b7100000000000000000000000000000000000000000000000000000000600052603260045260246000fd5b60200101907effffffffffffffffffffffffffffffffffffffffffffffffffffffffffffff1916908160001a905350600a856126f29190614160565b945061264a565b8093505050505b919050565b61279f83838360405160240161271d93929190613ce2565b6040516020818303038152906040527ff362ca59000000000000000000000000000000000000000000000000000000007bffffffffffffffffffffffffffffffffffffffffffffffffffffffff19166020820180517bffffffffffffffffffffffffffffffffffffffffffffffffffffffff8381831617835250505050612b11565b505050565b60606000825114156127c757604051806020016040528060008152509050612929565b6000604051806060016040528060408152602001614b9360409139905060006003600285516127f6919061410a565b6128009190614160565b600461280c9190614191565b67ffffffffffffffff81111561284b577f4e487b7100000000000000000000000000000000000000000000000000000000600052604160045260246000fd5b6040519080825280601f01601f19166020018201604052801561287d5781602001600182028036833780820191505090505b509050600182016020820185865187015b808210156128e9576003820191508151603f8160121c168501518453600184019350603f81600c1c168501518453600184019350603f8160061c168501518453600184019350603f811685015184536001840193505061288e565b5050600386510660018114612905576002811461291857612920565b603d6001830353603d6002830353612920565b603d60018303535b50505080925050505b919050565b612948828260405180602001604052806000815250612cdb565b5050565b61295582611bb0565b612994576040517f08c379a000000000000000000000000000000000000000000000000000000000815260040161298b90613ecc565b60405180910390fd5b806006600084815260200190815260200160002090805190602001906129bb929190612fb9565b505050565b612a5882826040516024016129d6929190613cb2565b6040516020818303038152906040527f319af333000000000000000000000000000000000000000000000000000000007bffffffffffffffffffffffffffffffffffffffffffffffffffffffff19166020820180517bffffffffffffffffffffffffffffffffffffffffffffffffffffffff8381831617835250505050612b11565b5050565b6001816000016000828254019250508190555050565b612b0c838383604051602401612a8a93929190613d27565b6040516020818303038152906040527fa3f5c739000000000000000000000000000000000000000000000000000000007bffffffffffffffffffffffffffffffffffffffffffffffffffffffff19166020820180517bffffffffffffffffffffffffffffffffffffffffffffffffffffffff8381831617835250505050612b11565b505050565b60008151905060006a636f6e736f6c652e6c6f679050602083016000808483855afa5050505050565b505050565b505050565b6000612b658473ffffffffffffffffffffffffffffffffffffffff16612d36565b15612cce578373ffffffffffffffffffffffffffffffffffffffff1663150b7a02612b8e611c1c565b8786866040518563ffffffff1660e01b8152600401612bb09493929190613be3565b602060405180830381600087803b158015612bca57600080fd5b505af1925050508015612bfb57506040513d601f19601f82011682018060405250810190612bf89190613347565b60015b612c7e573d8060008114612c2b576040519150601f19603f3d011682016040523d82523d6000602084013e612c30565b606091505b50600081511415612c76576040517f08c379a0000000000000000000000000000000000000000000000000000000008152600401612c6d90613d8c565b60405180910390fd5b805181602001fd5b63150b7a0260e01b7bffffffffffffffffffffffffffffffffffffffffffffffffffffffff1916817bffffffffffffffffffffffffffffffffffffffffffffffffffffffff191614915050612cd3565b600190505b949350505050565b612ce58383612d59565b612cf26000848484612b44565b612d31576040517f08c379a0000000000000000000000000000000000000000000000000000000008152600401612d2890613d8c565b60405180910390fd5b505050565b6000808273ffffffffffffffffffffffffffffffffffffffff163b119050919050565b600073ffffffffffffffffffffffffffffffffffffffff168273ffffffffffffffffffffffffffffffffffffffff161415612dc9576040517f08c379a0000000000000000000000000000000000000000000000000000000008152600401612dc090613eec565b60405180910390fd5b612dd281611bb0565b15612e12576040517f08c379a0000000000000000000000000000000000000000000000000000000008152600401612e0990613dec565b60405180910390fd5b612e1e60008383612b3a565b6001600360008473ffffffffffffffffffffffffffffffffffffffff1673ffffffffffffffffffffffffffffffffffffffff1681526020019081526020016000206000828254612e6e919061410a565b92505081905550816002600083815260200190815260200160002060006101000a81548173ffffffffffffffffffffffffffffffffffffffff021916908373ffffffffffffffffffffffffffffffffffffffff160217905550808273ffffffffffffffffffffffffffffffffffffffff16600073ffffffffffffffffffffffffffffffffffffffff167fddf252ad1be2c89b69c2b068fc378daa952ba7f163c4a11628f55a4df523b3ef60405160405180910390a4612f2f60008383612b3f565b5050565b828054612f3f906142d5565b90600052602060002090601f016020900481019282612f615760008555612fa8565b82601f10612f7a57803560ff1916838001178555612fa8565b82800160010185558215612fa8579182015b82811115612fa7578235825591602001919060010190612f8c565b5b509050612fb5919061303f565b5090565b828054612fc5906142d5565b90600052602060002090601f016020900481019282612fe7576000855561302e565b82601f1061300057805160ff191683800117855561302e565b8280016001018555821561302e579182015b8281111561302d578251825591602001919060010190613012565b5b50905061303b919061303f565b5090565b5b80821115613058576000816000905550600101613040565b5090565b600061306f61306a8461402c565b614007565b90508281526020810184848401111561308757600080fd5b613092848285614293565b509392505050565b6000813590506130a981614b0f565b92915050565b6000813590506130be81614b26565b92915050565b6000813590506130d381614b3d565b92915050565b6000815190506130e881614b3d565b92915050565b600082601f8301126130ff57600080fd5b813561310f84826020860161305c565b91505092915050565b60008083601f84011261312a57600080fd5b8235905067ffffffffffffffff81111561314357600080fd5b60208301915083600182028301111561315b57600080fd5b9250929050565b60008135905061317181614b54565b92915050565b60006020828403121561318957600080fd5b60006131978482850161309a565b91505092915050565b600080604083850312156131b357600080fd5b60006131c18582860161309a565b92505060206131d28582860161309a565b9150509250929050565b6000806000606084860312156131f157600080fd5b60006131ff8682870161309a565b93505060206132108682870161309a565b925050604061322186828701613162565b9150509250925092565b6000806000806080858703121561324157600080fd5b600061324f8782880161309a565b94505060206132608782880161309a565b935050604061327187828801613162565b925050606085013567ffffffffffffffff81111561328e57600080fd5b61329a878288016130ee565b91505092959194509250565b600080604083850312156132b957600080fd5b60006132c78582860161309a565b92505060206132d8858286016130af565b9150509250929050565b600080604083850312156132f557600080fd5b60006133038582860161309a565b925050602061331485828601613162565b9150509250929050565b60006020828403121561333057600080fd5b600061333e848285016130c4565b91505092915050565b60006020828403121561335957600080fd5b6000613367848285016130d9565b91505092915050565b6000806020838503121561338357600080fd5b600083013567ffffffffffffffff81111561339d57600080fd5b6133a985828601613118565b92509250509250929050565b600080600080604085870312156133cb57600080fd5b600085013567ffffffffffffffff8111156133e557600080fd5b6133f187828801613118565b9450945050602085013567ffffffffffffffff81111561341057600080fd5b61341c87828801613118565b925092505092959194509250565b60006020828403121561343c57600080fd5b600061344a84828501613162565b91505092915050565b600061345f8383613585565b905092915050565b6134708161421f565b82525050565b600061348182614082565b61348b81856140b0565b93508360208202850161349d8561405d565b8060005b858110156134d957848403895281516134ba8582613453565b94506134c5836140a3565b925060208a019950506001810190506134a1565b50829750879550505050505092915050565b6134f481614231565b82525050565b60006135058261408d565b61350f81856140c1565b935061351f8185602086016142a2565b6135288161446e565b840191505092915050565b600061353f83856140ee565b935061354c838584614293565b6135558361446e565b840190509392505050565b600061356c83856140ff565b9350613579838584614293565b82840190509392505050565b600061359082614098565b61359a81856140dd565b93506135aa8185602086016142a2565b6135b38161446e565b840191505092915050565b60006135c982614098565b6135d381856140ee565b93506135e38185602086016142a2565b6135ec8161446e565b840191505092915050565b600061360282614098565b61360c81856140ff565b935061361c8185602086016142a2565b80840191505092915050565b60008154613635816142d5565b61363f81866140ff565b9450600182166000811461365a576001811461366b5761369e565b60ff1983168652818601935061369e565b6136748561406d565b60005b8381101561369657815481890152600182019150602081019050613677565b838801955050505b50505092915050565b60006136b4601b836140ff565b91506136bf8261447f565b601b82019050919050565b60006136d76012836140ee565b91506136e2826144a8565b602082019050919050565b60006136fa6032836140ee565b9150613705826144d1565b604082019050919050565b600061371d6026836140ee565b915061372882614520565b604082019050919050565b60006137406025836140ee565b915061374b8261456f565b604082019050919050565b6000613763601c836140ee565b915061376e826145be565b602082019050919050565b60006137866024836140ee565b9150613791826145e7565b604082019050919050565b60006137a96019836140ee565b91506137b482614636565b602082019050919050565b60006137cc602c836140ee565b91506137d78261465f565b604082019050919050565b60006137ef6038836140ee565b91506137fa826146ae565b604082019050919050565b60006138126001836140ff565b915061381d826146fd565b600182019050919050565b6000613835602a836140ee565b915061384082614726565b604082019050919050565b60006138586029836140ee565b915061386382614775565b604082019050919050565b600061387b602e836140ee565b9150613886826147c4565b604082019050919050565b600061389e6039836140ff565b91506138a982614813565b603982019050919050565b60006138c16002836140ff565b91506138cc82614862565b600282019050919050565b60006138e46020836140ee565b91506138ef8261488b565b602082019050919050565b60006139076031836140ee565b9150613912826148b4565b604082019050919050565b600061392a602c836140ee565b915061393582614903565b604082019050919050565b600061394d6020836140ee565b915061395882614952565b602082019050919050565b6000613970602f836140ee565b915061397b8261497b565b604082019050919050565b60006139936015836140ee565b915061399e826149ca565b602082019050919050565b60006139b6600a836140ff565b91506139c1826149f3565b600a82019050919050565b60006139d96021836140ee565b91506139e482614a1c565b604082019050919050565b60006139fc601d836140ff565b9150613a0782614a6b565b601d82019050919050565b6000613a1f600c836140ff565b9150613a2a82614a94565b600c82019050919050565b6000613a426000836140d2565b9150613a4d82614abd565b600082019050919050565b6000613a656031836140ee565b9150613a7082614ac0565b604082019050919050565b613a8481614289565b82525050565b6000613a97828486613560565b91508190509392505050565b6000613ab0828587613560565b9150613abb82613805565b9150613ac78284613628565b9150819050949350505050565b6000613ae082856135f7565b9150613aec82846135f7565b91508190509392505050565b6000613b048286613628565b9150613b1082856135f7565b9150613b1c8284613628565b9150819050949350505050565b6000613b34826139a9565b9150613b4082866135f7565b9150613b4b82613891565b9150613b56826136a7565b9150613b6282856135f7565b9150613b6d82613a12565b9150613b7982846135f7565b9150613b84826138b4565b9150819050949350505050565b6000613b9c826139ef565b9150613ba882846135f7565b915081905092915050565b6000613bbe82613a35565b9150819050919050565b6000602082019050613bdd6000830184613467565b92915050565b6000608082019050613bf86000830187613467565b613c056020830186613467565b613c126040830185613a7b565b8181036060830152613c2481846134fa565b905095945050505050565b60006020820190508181036000830152613c498184613476565b905092915050565b6000602082019050613c6660008301846134eb565b92915050565b60006020820190508181036000830152613c87818486613533565b90509392505050565b60006020820190508181036000830152613caa81846135be565b905092915050565b60006040820190508181036000830152613ccc81856135be565b9050613cdb6020830184613467565b9392505050565b60006060820190508181036000830152613cfc81866135be565b90508181036020830152613d1081856135be565b9050613d1f6040830184613a7b565b949350505050565b60006060820190508181036000830152613d4181866135be565b9050613d506020830185613a7b565b8181036040830152613d6281846135be565b9050949350505050565b60006020820190508181036000830152613d85816136ca565b9050919050565b60006020820190508181036000830152613da5816136ed565b9050919050565b60006020820190508181036000830152613dc581613710565b9050919050565b60006020820190508181036000830152613de581613733565b9050919050565b60006020820190508181036000830152613e0581613756565b9050919050565b60006020820190508181036000830152613e2581613779565b9050919050565b60006020820190508181036000830152613e458161379c565b9050919050565b60006020820190508181036000830152613e65816137bf565b9050919050565b60006020820190508181036000830152613e85816137e2565b9050919050565b60006020820190508181036000830152613ea581613828565b9050919050565b60006020820190508181036000830152613ec58161384b565b9050919050565b60006020820190508181036000830152613ee58161386e565b9050919050565b60006020820190508181036000830152613f05816138d7565b9050919050565b60006020820190508181036000830152613f25816138fa565b9050919050565b60006020820190508181036000830152613f458161391d565b9050919050565b60006020820190508181036000830152613f6581613940565b9050919050565b60006020820190508181036000830152613f8581613963565b9050919050565b60006020820190508181036000830152613fa581613986565b9050919050565b60006020820190508181036000830152613fc5816139cc565b9050919050565b60006020820190508181036000830152613fe581613a58565b9050919050565b60006020820190506140016000830184613a7b565b92915050565b6000614011614022565b905061401d8282614307565b919050565b6000604051905090565b600067ffffffffffffffff8211156140475761404661443f565b5b6140508261446e565b9050602081019050919050565b6000819050602082019050919050565b60008190508160005260206000209050919050565b600081519050919050565b600081519050919050565b600081519050919050565b6000602082019050919050565b600082825260208201905092915050565b600082825260208201905092915050565b600081905092915050565b600082825260208201905092915050565b600082825260208201905092915050565b600081905092915050565b600061411582614289565b915061412083614289565b9250827fffffffffffffffffffffffffffffffffffffffffffffffffffffffffffffffff03821115614155576141546143b2565b5b828201905092915050565b600061416b82614289565b915061417683614289565b925082614186576141856143e1565b5b828204905092915050565b600061419c82614289565b91506141a783614289565b9250817fffffffffffffffffffffffffffffffffffffffffffffffffffffffffffffffff04831182151516156141e0576141df6143b2565b5b828202905092915050565b60006141f682614289565b915061420183614289565b925082821015614214576142136143b2565b5b828203905092915050565b600061422a82614269565b9050919050565b60008115159050919050565b60007fffffffff0000000000000000000000000000000000000000000000000000000082169050919050565b600073ffffffffffffffffffffffffffffffffffffffff82169050919050565b6000819050919050565b82818337600083830152505050565b60005b838110156142c05780820151818401526020810190506142a5565b838111156142cf576000848401525b50505050565b600060028204905060018216806142ed57607f821691505b6020821081141561430157614300614410565b5b50919050565b6143108261446e565b810181811067ffffffffffffffff8211171561432f5761432e61443f565b5b80604052505050565b600061434382614289565b91507fffffffffffffffffffffffffffffffffffffffffffffffffffffffffffffffff821415614376576143756143b2565b5b600182019050919050565b600061438c82614289565b915061439783614289565b9250826143a7576143a66143e1565b5b828206905092915050565b7f4e487b7100000000000000000000000000000000000000000000000000000000600052601160045260246000fd5b7f4e487b7100000000000000000000000000000000000000000000000000000000600052601260045260246000fd5b7f4e487b7100000000000000000000000000000000000000000000000000000000600052602260045260246000fd5b7f4e487b7100000000000000000000000000000000000000000000000000000000600052604160045260246000fd5b6000601f19601f8301169050919050565b7f22646174613a696d6167652f7376672b786d6c3b6261736536342c0000000000600082015250565b7f4661696c656420746f2077697468647261770000000000000000000000000000600082015250565b7f4552433732313a207472616e7366657220746f206e6f6e20455243373231526560008201527f63656976657220696d706c656d656e7465720000000000000000000000000000602082015250565b7f4f776e61626c653a206e6577206f776e657220697320746865207a65726f206160008201527f6464726573730000000000000000000000000000000000000000000000000000602082015250565b7f4552433732313a207472616e736665722066726f6d20696e636f72726563742060008201527f6f776e6572000000000000000000000000000000000000000000000000000000602082015250565b7f4552433732313a20746f6b656e20616c7265616479206d696e74656400000000600082015250565b7f4552433732313a207472616e7366657220746f20746865207a65726f2061646460008201527f7265737300000000000000000000000000000000000000000000000000000000602082015250565b7f4552433732313a20617070726f766520746f2063616c6c657200000000000000600082015250565b7f4552433732313a206f70657261746f7220717565727920666f72206e6f6e657860008201527f697374656e7420746f6b656e0000000000000000000000000000000000000000602082015250565b7f4552433732313a20617070726f76652063616c6c6572206973206e6f74206f7760008201527f6e6572206e6f7220617070726f76656420666f7220616c6c0000000000000000602082015250565b7f2e00000000000000000000000000000000000000000000000000000000000000600082015250565b7f4552433732313a2062616c616e636520717565727920666f7220746865207a6560008201527f726f206164647265737300000000000000000000000000000000000000000000602082015250565b7f4552433732313a206f776e657220717565727920666f72206e6f6e657869737460008201527f656e7420746f6b656e0000000000000000000000000000000000000000000000602082015250565b7f45524337323155524953746f726167653a2055524920736574206f66206e6f6e60008201527f6578697374656e7420746f6b656e000000000000000000000000000000000000602082015250565b7f222c226465736372697074696f6e22203a202261204e4654207468617420737460008201527f6f726520646f6d61696e206e616d65222c22696d616765223a00000000000000602082015250565b7f227d000000000000000000000000000000000000000000000000000000000000600082015250565b7f4552433732313a206d696e7420746f20746865207a65726f2061646472657373600082015250565b7f45524337323155524953746f726167653a2055524920717565727920666f722060008201527f6e6f6e6578697374656e7420746f6b656e000000000000000000000000000000602082015250565b7f4552433732313a20617070726f76656420717565727920666f72206e6f6e657860008201527f697374656e7420746f6b656e0000000000000000000000000000000000000000602082015250565b7f4f776e61626c653a2063616c6c6572206973206e6f7420746865206f776e6572600082015250565b7f4552433732314d657461646174613a2055524920717565727920666f72206e6f60008201527f6e6578697374656e7420746f6b656e0000000000000000000000000000000000602082015250565b7f4e6f7420656e6f756768204d6174696320706169640000000000000000000000600082015250565b7f7b226e616d65223a202200000000000000000000000000000000000000000000600082015250565b7f4552433732313a20617070726f76616c20746f2063757272656e74206f776e6560008201527f7200000000000000000000000000000000000000000000000000000000000000602082015250565b7f646174613a6170706c69636174696f6e2f6a736f6e3b6261736536342c000000600082015250565b7f222c226c656e677468223a220000000000000000000000000000000000000000600082015250565b50565b7f4552433732313a207472616e736665722063616c6c6572206973206e6f74206f60008201527f776e6572206e6f7220617070726f766564000000000000000000000000000000602082015250565b614b188161421f565b8114614b2357600080fd5b50565b614b2f81614231565b8114614b3a57600080fd5b50565b614b468161423d565b8114614b5157600080fd5b50565b614b5d81614289565b8114614b6857600080fd5b5056fe5265676973746572696e6720257320646f6d61696e73207769746820746f6b656e2049442025734142434445464748494a4b4c4d4e4f505152535455565758595a6162636465666768696a6b6c6d6e6f707172737475767778797a303132333435363738392b2fa26469706673582212207ffd89674eeb8c2ea75634bab4abd5cb0697e48d6bb5cc6f2fa55554ebf8fa1664736f6c634300080400333c73766720786d6c6e733d22687474703a2f2f7777772e77332e6f72672f323030302f737667222077696474683d2232373022206865696768743d22323730222066696c6c3d226e6f6e65223e3c706174682066696c6c3d2275726c282342292220643d224d302030683237307632373048307a222f3e3c646566733e3c66696c7465722069643d22412220636f6c6f722d696e746572706f6c6174696f6e2d66696c746572733d2273524742222066696c746572556e6974733d227573657253706163654f6e55736522206865696768743d22323730222077696474683d22323730223e3c666544726f70536861646f772064783d2230222064793d22312220737464446576696174696f6e3d22322220666c6f6f642d6f7061636974793d222e323235222077696474683d223230302522206865696768743d2232303025222f3e3c2f66696c7465723e3c2f646566733e3c7061746820643d224d37322e3836332034322e393439632d2e3636382d2e3338372d312e3432362d2e35392d322e3139372d2e3539732d312e3532392e3230342d322e3139372e35396c2d31302e30383120362e3033322d362e383520332e3933342d31302e30383120362e303332632d2e3636382e3338372d312e3432362e35392d322e3139372e3539732d312e3532392d2e3230342d322e3139372d2e35396c2d382e3031332d342e37323161342e353220342e35322030203020312d312e3538392d312e363136632d2e3338342d2e3636352d2e3539342d312e3431382d2e3630382d322e313837762d392e3331632d2e3031332d2e3737352e3138352d312e3533382e3537322d322e32303861342e323520342e323520302030203120312e3632352d312e3539356c372e3838342d342e3539632e3636382d2e33383720312e3432362d2e353920322e3139372d2e353973312e3532392e32303420322e3139372e35396c372e38383420342e353961342e353220342e353220302030203120312e35383920312e363136632e3338342e3636352e35393420312e3431382e36303820322e31383776362e3033326c362e38352d342e303635762d362e303332632e3031332d2e3737352d2e3138352d312e3533382d2e3537322d322e32303861342e323520342e32352030203020302d312e3632352d312e3539354c34312e3435362032342e3539632d2e3636382d2e3338372d312e3432362d2e35392d322e3139372d2e3539732d312e3532392e3230342d322e3139372e35396c2d31342e38363420382e36353561342e323520342e32352030203020302d312e36323520312e353935632d2e3338372e36372d2e35383520312e3433342d2e35373220322e3230387631372e343431632d2e3031332e3737352e31383520312e3533382e35373220322e32303861342e323520342e323520302030203020312e36323520312e3539356c31342e38363420382e363535632e3636382e33383720312e3432362e353920322e3139372e353973312e3532392d2e32303420322e3139372d2e35396c31302e3038312d352e39303120362e38352d342e3036352031302e3038312d352e393031632e3636382d2e33383720312e3432362d2e353920322e3139372d2e353973312e3532392e32303420322e3139372e35396c372e38383420342e353961342e353220342e353220302030203120312e35383920312e363136632e3338342e3636352e35393420312e3431382e36303820322e31383776392e333131632e3031332e3737352d2e31383520312e3533382d2e35373220322e32303861342e323520342e32352030203020312d312e36323520312e3539356c2d372e38383420342e373231632d2e3636382e3338372d312e3432362e35392d322e3139372e3539732d312e3532392d2e3230342d322e3139372d2e35396c2d372e3838342d342e353961342e353220342e35322030203020312d312e3538392d312e363136632d2e3338352d2e3636352d2e3539342d312e3431382d2e3630382d322e313837762d362e3033326c2d362e383520342e30363576362e303332632d2e3031332e3737352e31383520312e3533382e35373220322e32303861342e323520342e323520302030203020312e36323520312e3539356c31342e38363420382e363535632e3636382e33383720312e3432362e353920322e3139372e353973312e3532392d2e32303420322e3139372d2e35396c31342e3836342d382e363535632e3635372d2e33393420312e3230342d2e393520312e3538392d312e363136732e3539342d312e3431382e3630392d322e3138375635352e353338632e3031332d2e3737352d2e3138352d312e3533382d2e3537322d322e32303861342e323520342e32352030203020302d312e3632352d312e3539356c2d31342e3939332d382e3738367a222066696c6c3d2223666666222f3e3c646566733e3c6c696e6561724772616469656e742069643d2242222078313d2230222079313d2230222078323d22323730222079323d2232373022206772616469656e74556e6974733d227573657253706163654f6e557365223e3c73746f702073746f702d636f6c6f723d2223636235656565222f3e3c73746f70206f66667365743d2231222073746f702d636f6c6f723d2223306364376534222073746f702d6f7061636974793d222e3939222f3e3c2f6c696e6561724772616469656e743e3c2f646566733e3c7465787420783d2233322e352220793d223233312220666f6e742d73697a653d223237222066696c6c3d2223666666222066696c7465723d2275726c282341292220666f6e742d66616d696c793d22506c7573204a616b617274612053616e732c44656a6156752053616e732c4e6f746f20436f6c6f7220456d6f6a692c4170706c6520436f6c6f7220456d6f6a692c73616e732d73657269662220666f6e742d7765696768743d22626f6c64223e",
  "linkReferences": {},
  "deployedLinkReferences": {}
}